:020000040000fa
:080000000002040000000000f2
:020000040000fa
:04000800cc02000026
:020000040000fa
:04000c00cc02000022
:020000040000fa
:04001000cc0200001e
:020000040000fa
:04001400cc0200001a
:020000040000fa
:04001800cc02000016
:020000040000fa
:04001c00cc02000012
:020000040000fa
:04002000cc0200000e
:020000040000fa
:04002400cc0200000a
:020000040000fa
:04002800cc02000006
:020000040000fa
:04002c00cc02000002
:020000040000fa
:04003000cc020000fe
:020000040000fa
:04003400cc020000fa
:020000040000fa
:04003800cc020000f6
:020000040000fa
:04003c00cc020000f2
:020000040000fa
:04004000cc020000ee
:020000040000fa
:04004400cc020000ea
:020000040000fa
:04004800cc020000e6
:020000040000fa
:04004c00cc020000e2
:020000040000fa
:04005000cc020000de
:020000040000fa
:04005400cc020000da
:020000040000fa
:04005800cc020000d6
:020000040000fa
:04005c00cc020000d2
:020000040000fa
:04006000cc020000ce
:020000040000fa
:04006400cc020000ca
:020000040000fa
:04006800cc020000c6
:020000040000fa
:04006c00cc020000c2
:020000040000fa
:04007000cc020000be
:020000040000fa
:04007400cc020000ba
:020000040000fa
:04007800cc020000b6
:020000040000fa
:04007c00cc020000b2
:020000040000fa
:04008000cc020000ae
:020000040000fa
:04008400cc020000aa
:020000040000fa
:04008800cc020000a6
:020000040000fa
:04008c00cc020000a2
:020000040000fa
:04009000cc0200009e
:020000040000fa
:04009400cc0200009a
:020000040000fa
:04009800cc02000096
:020000040000fa
:04009c00cc02000092
:020000040000fa
:0400a000cc0200008e
:020000040000fa
:0400a400cc0200008a
:020000040000fa
:0400a800cc02000086
:020000040000fa
:0400ac00cc02000082
:020000040000fa
:0400b000cc0200007e
:020000040000fa
:0400b400cc0200007a
:020000040000fa
:0400b800cc02000076
:020000040000fa
:0400bc00cc02000072
:020000040000fa
:0400c000cc0200006e
:020000040000fa
:0400c400cc0200006a
:020000040000fa
:0400c800cc02000066
:020000040000fa
:0400cc00cc02000062
:020000040000fa
:0400d000cc0200005e
:020000040000fa
:0400d400cc0200005a
:020000040000fa
:0400d800cc02000056
:020000040000fa
:0400dc00cc02000052
:020000040000fa
:0400e000cc0200004e
:020000040000fa
:0400e400cc0200004a
:020000040000fa
:0400e800cc02000046
:020000040000fa
:0400ec00cc02000042
:020000040000fa
:0400f000cc0200003e
:020000040000fa
:0400f400cc0200003a
:020000040000fa
:0400f800cc02000036
:020000040000fa
:0400fc00cc02000032
:020000040000fa
:04010000cc0200002d
:020000040000fa
:04010400cc02000029
:020000040000fa
:04010800cc02000025
:020000040000fa
:04010c00cc02000021
:020000040000fa
:04011000cc0200001d
:020000040000fa
:04011400cc02000019
:020000040000fa
:04011800cc02000015
:020000040000fa
:04011c00cc02000011
:020000040000fa
:04012000cc0200000d
:020000040000fa
:04012400cc02000009
:020000040000fa
:04012800cc02000005
:020000040000fa
:04012c00cc02000001
:020000040000fa
:04013000cc020000fd
:020000040000fa
:04013400cc020000f9
:020000040000fa
:04013800cc020000f5
:020000040000fa
:04013c00cc020000f1
:020000040000fa
:04014000cc020000ed
:020000040000fa
:04014400cc020000e9
:020000040000fa
:04014800cc020000e5
:020000040000fa
:04014c00cc020000e1
:020000040000fa
:04015000cc020000dd
:020000040000fa
:04015400cc020000d9
:020000040000fa
:04015800cc020000d5
:020000040000fa
:04015c00cc020000d1
:020000040000fa
:04016000cc020000cd
:020000040000fa
:04016400cc020000c9
:020000040000fa
:04016800cc020000c5
:020000040000fa
:04016c00cc020000c1
:020000040000fa
:04017000cc020000bd
:020000040000fa
:04017400cc020000b9
:020000040000fa
:04017800cc020000b5
:020000040000fa
:04017c00cc020000b1
:020000040000fa
:04018000cc020000ad
:020000040000fa
:04020800cc02000024
:020000040000fa
:04020c00cc02000020
:020000040000fa
:04021000cc0200001c
:020000040000fa
:04021400cc02000018
:020000040000fa
:04021800cc02000014
:020000040000fa
:04021c00cc02000010
:020000040000fa
:04022000cc0200000c
:020000040000fa
:04022400cc02000008
:020000040000fa
:04022800cc02000004
:020000040000fa
:04022c00cc02000000
:020000040000fa
:04023000cc020000fc
:020000040000fa
:04023400cc020000f8
:020000040000fa
:04023800cc020000f4
:020000040000fa
:04023c00cc020000f0
:020000040000fa
:04024000cc020000ec
:020000040000fa
:04024400cc020000e8
:020000040000fa
:04024800cc020000e4
:020000040000fa
:04024c00cc020000e0
:020000040000fa
:04025000cc020000dc
:020000040000fa
:04025400cc020000d8
:020000040000fa
:04025800cc020000d4
:020000040000fa
:04025c00cc020000d0
:020000040000fa
:04026000cc020000cc
:020000040000fa
:04026400cc020000c8
:020000040000fa
:04026800cc020000c4
:020000040000fa
:04026c00cc020000c0
:020000040000fa
:04027000cc020000bc
:020000040000fa
:04027400cc020000b8
:020000040000fa
:04027800cc020000b4
:020000040000fa
:04027c00cc020000b0
:020000040000fa
:04028000cc020000ac
:020000040000fa
:04028400cc020000a8
:020000040000fa
:04028800cc020000a4
:020000040000fa
:04028c00cc020000a0
:020000040000fa
:04029000cc0200009c
:020000040000fa
:04029400cc02000098
:020000040000fa
:04029800cc02000094
:020000040000fa
:04029c00cc02000090
:020000040000fa
:0402a000cc0200008c
:020000040000fa
:0402a400cc02000088
:020000040000fa
:0402a800cc02000084
:020000040000fa
:0402ac00cc02000080
:020000040000fa
:0402b000cc0200007c
:020000040000fa
:0402b400cc02000078
:020000040000fa
:0402b800cc02000074
:020000040000fa
:0402bc00cc02000070
:020000040000fa
:0402c000cc0200006c
:020000040000fa
:0402c400cc02000068
:020000040000fa
:0402c800cc02000064
:020000040000fa
:0402cc00cc02000060
:020000040000fa
:0402d000cc0200005c
:020000040000fa
:0402d400cc02000058
:020000040000fa
:0402d800cc02000054
:020000040000fa
:0402dc00cc02000050
:020000040000fa
:0402e000cc0200004c
:020000040000fa
:0402e400cc02000048
:020000040000fa
:0402e800cc02000044
:020000040000fa
:0402ec00cc02000040
:020000040000fa
:0402f000cc0200003c
:020000040000fa
:0402f400cc02000038
:020000040000fa
:0402f800cc02000034
:020000040000fa
:0402fc00cc02000030
:020000040000fa
:04030000cc0200002b
:020000040000fa
:04030400cc02000027
:020000040000fa
:04030800cc02000023
:020000040000fa
:04030c00cc0200001f
:020000040000fa
:04031000cc0200001b
:020000040000fa
:04031400cc02000017
:020000040000fa
:04031800cc02000013
:020000040000fa
:04031c00cc0200000f
:020000040000fa
:04032000cc0200000b
:020000040000fa
:04032400cc02000007
:020000040000fa
:04032800cc02000003
:020000040000fa
:04032c00cc020000ff
:020000040000fa
:04033000cc020000fb
:020000040000fa
:04033400cc020000f7
:020000040000fa
:04033800cc020000f3
:020000040000fa
:04033c00cc020000ef
:020000040000fa
:04034000cc020000eb
:020000040000fa
:04034400cc020000e7
:020000040000fa
:04034800cc020000e3
:020000040000fa
:04034c00cc020000df
:020000040000fa
:04035000cc020000db
:020000040000fa
:04035400cc020000d7
:020000040000fa
:04035800cc020000d3
:020000040000fa
:04035c00cc020000cf
:020000040000fa
:04036000cc020000cb
:020000040000fa
:04036400cc020000c7
:020000040000fa
:04036800cc020000c3
:020000040000fa
:04036c00cc020000bf
:020000040000fa
:04037000cc020000bb
:020000040000fa
:04037400cc020000b7
:020000040000fa
:04037800cc020000b3
:020000040000fa
:04037c00cc020000af
:020000040000fa
:04038000cc020000ab
:020000040000fa
:100400006f8920000e7f22000e018800000000008e
:10041000000020000000e000020032000001200087
:1004200020028800140007005d0007000000e000c3
:1004300003003a00a07b21000100200002003700e9
:100440000000200001002000810f70000100320038
:1004500014000700000020000000e000020032004d
:1004600000000200000000000a110200000000006d
:100470000040da000000fe004440a9000005200012
:100480000000e0000300320000002000a00188000e
:100490004440a800000006008a1f78008b1f7800e7
:1004a0000000060091018800800478000000eb0045
:1004b0001a003700e284440032a0b4009905ba0063
:1004c000e284440032a0b4009906ba00e2844400f9
:1004d00032a0b4000006eb00476fde00fd07b2005b
:1004e000636ce10003003a00ebff07000000eb0043
:1004f0000a003700606ce10004003a00005deb0088
:100500008b05e900fdff3e00040037006168e10053
:10051000010032000086eb000b00070019c7ba008b
:100520001905ba000e04e00003003a000a00e000da
:10053000e0ff3a0000000600fe07b2009e018800be
:100540008a047800f5ff3700395dba008b05e900b1
:100550000c003200295dba008b05e900080032006a
:100560000c00e00003003a00e284440032a0b40032
:10057000f5ff370019ddba008b05e900faff3a00f4
:100580008904e800e184440032a0b40000000600c1
:1005900000000000000000000040da000000fe0043
:1005a000000005008001780002003700b159780092
:1005b0000201e9000200e000fcff3a000000060032
:1005c00080007800010178003104e000fdff3a006e
:1005d0000000510000000600881f78000204780027
:1005e00008017800efff0700080040004f04780082
:1005f000000006000000fa00881f78000004780060
:10060000ea8157003fb9970088007800c02e20008b
:10061000070007000000e000020035008040eb000a
:10062000017478004f0478000080fa000000060092
:100630006200fa00889fbe008a1f780000057800db
:1006400081047800020478008300780080f92f008c
:100650000f004000d40307009a979f00a9979f00be
:100660000000eb00b09f9f001885fb008a04fb0090
:100670000a05ea004f55de0050022000808f54002a
:100680000d003200e10f55000b003a000a0178001e
:10069000880078002f9097009f9197000300010039
:1006a000a0979f000000e0008e0032003f98970066
:1006b0000000e800b09f9f000a04440050022000a0
:1006c000808f5400040032000900e000e6ff3a0089
:1006d0003f989700840037000000eb00909f9f0038
:1006e000809f9f00f0979f00e0979f00d0979f000a
:1006f000c0979f0007003700c1882000010050000c
:10070000000040000188200061007800df98970019
:1007100001007000d09f9f008804780009047800d1
:10072000384578008a00fb00c0882000a701070038
:100730000000e000f0ff3a00a1c2b300814f550075
:100740000e003a00cf8897000180e900c08f9f001b
:1007500010007800c09f9f000000e00005003d00f1
:100760000000ea00c09f9f005f9897000020a00053
:10077000d09f9f000904e8000f003700c09f9f0032
:100780000000eb0005003700f2ff2700820f500049
:10079000020032006a01b9000280400009047800ba
:1007a00088047800b900fb000103b100e98f500014
:1007b000f5ff3600c09f9f00e0c2b300984f1000c5
:1007c000020032000080eb0019003700a0c2b30025
:1007d000d84f100007003a00cf8897000180e90049
:1007e000c08f9f0010007800a09f9f000804e800c1
:1007f000100037000000eb00a09f9f0088007800e9
:1008000005003700f3ff2700830f5000020032007d
:100810006a02b900040041000104780088007800f1
:100820003101fb000203b100e90f5100f5ff360072
:10083000a09f9f00984478008900fb0080872000db
:10084000620107000000e000020032000804e80036
:10085000010037008044eb00c97f9f0080c6b300d1
:1008600080cf540004003a0098cf14000a003a00e8
:100870006640500006003700c0c6b30080cf540069
:1008800005003a0098cf140003003a00654040008c
:10089000c07f9f000804e8001801fb00e3fb2f0065
:1008a0008f81410081f92f008f804000a0f92f0037
:1008b0000f004000100007000000e00009003a00af
:1008c000e1fb2f008f804000a0f92f000f004000b7
:1008d000790207000000e000020035000804e8008b
:1008e00061ff37000080eb004f0578004f04be0029
:1008f0000080fa0000000600889fbe008a1f780072
:1009000000047800e0c6b300804f5100c1003200ff
:1009100015003c006b405000804f51002400320015
:100920000a003c0070405000804f5100fa00320035
:1009300065404000804f51006800320050c2b30053
:10094000804f51000b013a000701370040c6b30049
:10095000804f51001b00320065404000804f510025
:1009600004013a001700370030c7b300804f510030
:10097000e900320007003c0064405000804f510005
:10098000560032000040e800804f5100f9003a0064
:10099000d300370050c7b300804f51004f003200e2
:1009a00063404000804f5100f2003a004b00370096
:1009b0001181e900820878007800900012417800e7
:1009c000ea00370028609000c4c6b300844f50008e
:1009d00007003a0011027800640052008008780095
:1009e0001002be004fabde00860378001100370016
:1009f00014c7b300844f500003003200a4c6b300f4
:100a0000844f500006003a0011027800680052003e
:100a1000800878003002be002003be0005003700c9
:100a20001180e9008008780010027800cfa2de0073
:100a3000612bb900049cbe000694be0028609000a3
:100a400081c6b300814f50000d00320021c6b300b3
:100a5000814f500004003a000402fb00cfa2de00e8
:100a6000612bb9000800370041c7b300814f500027
:100a700003003200e6c04000814f500004003a00fd
:100a8000cfa2de00612bb900049cbe000694be001c
:100a90003802be002803be0078009000d1c2b30027
:100aa000e00f5200e08f5a00e00f5b00e08f5b0028
:100ab00008003500881090000118a30002003200e1
:100ac000b1c2b300030037000108a3004c0032009c
:100ad00001c2b300817178004700370028609000a0
:100ae000c4c6b300844f500006003a0011027800db
:100af00064005200800878001002be006033b80025
:100b00001100370014c7b300844f500003003200b7
:100b1000a4c6b300844f500006003a0011027800ca
:100b200068005200800878003002be002003be003a
:100b3000050037001180e900800878001002780075
:100b40008002eb006033b800049cbe000694be0037
:100b50002860900081c6b300814f50000d00320024
:100b600021c6b300814f500004003a000482fb000c
:100b70008002eb006033b8000800370041c7b300c3
:100b8000814f500003003200e6c04000814f50000a
:100b900004003a008002eb006033b800049cbe0001
:100ba0000694be00081090000038a3001400320024
:100bb0003802be002803be00e00f5200e08f5a004a
:100bc000e00f5b00e08f5b000d00320080c7b300d8
:100bd000804f51000300320080c5b300804f5100a8
:100be00007003a007800900001c3b30081717800db
:100bf0000000e800827178000000e80070049800ae
:100c00007800900080814100630498008240780061
:100c10003e00370028619000c3c6b3001180e90090
:100c2000834f5100220032000a003c00e4c1510011
:100c3000834f51002500320083c1e800834f5100eb
:100c400013003200e8c15100834f51001e003a00ea
:100c50000a00370043c7b300834f51001b00320026
:100c6000e6c14100834f510018003200e9c1510034
:100c7000834f510014003a000500370080087800c7
:100c800010007800485c9000084878004100370068
:100c90008008780010007800680a9000cfa2de007b
:100ca000612bb9000498be000690be0039003700e1
:100cb000800878001000780068099000cf91de006d
:100cc0000288be00330037001180e90080087800f8
:100cd00010007800680c9000080878002d0037009c
:100ce0001180e9008008780010027800cfa2de00b1
:100cf000612bb900049cbe000694be0078009000f1
:100d0000808141006304980081c7b3000800780027
:100d10003a0007001f0037001180e90080087800c2
:100d2000100578006a049800d80c90000900e000d3
:100d300004003d000a00780021fe070080047800ce
:100d400007003700090178008000eb000a007800f6
:100d5000140007000000e000010032008a04500087
:100d6000190c98000b003700780090008271780011
:100d70000600370078009000808141000204e00006
:100d800001003a0052c2b300824978000000e80036
:100d9000700498000000eb004f0578004f04be007f
:100da0000000060003003700b0cf1000050032003d
:100db0000201e900800178000200e000faff3a0039
:100dc0000000050003007800000006000200370064
:100dd0000304e00006003200000178000200780001
:100de000b041780081cf5100f9ff3a00010037008f
:100df0000001eb000200780000000600fc874700bd
:100e0000889fbe008a9fbe008c9fbe008e1f780008
:100e10000006780080c5b30080cf50000a00320081
:100e20007740400080cf50000a0032006940400007
:100e300080cf50000b0032007086200080bf9f00e2
:100e4000ae0020000a0037006285200082bf9f00ac
:100e5000060037007386200083bf9f008e002000ad
:100e6000030037007486200084bf9f000e0120001d
:100e70003c02be002c03be000605be000404be00fa
:100e800040c6b30080cf50000300320065404000f0
:100e900080cf50000b003a00e00f5200e08f5a0064
:100ea000e00f5b00e08f5b0006003d006000b800d3
:100eb0006011b800040450008584580006055900ec
:100ec00087855900e80f57000400320040002000d9
:100ed000f00f570038003a000100370030002000c2
:100ee000e00f5400e08f5c00e00f5d00e08f5d00dc
:100ef00004003a00dc0890008d0120000100e000b1
:100f0000060032008e00e900888060008fba9700ea
:100f1000e5c07800f1ef9f007d012000800078009f
:100f20008100e900050033008b05d1000a85d3005c
:100f30008984d3000884d300f9ff3700089ebe00df
:100f40000a96be00120037008d06e9008e00e90007
:100f5000848060000fb99700e2c1780082fd2f0005
:100f60000f01410003f17e00800078008100e9005c
:100f7000050033008783d1000683d3008582d30028
:100f80000482d300f9ff3700049ebe000696be001f
:100f90003c02be002c03be00e00f5200e08f5a005e
:100fa000e00f5b00e08f5b008b0034000d00e00081
:100fb000e5ff3c00880037002c60900081c6b3003c
:100fc000814f50000b00320006003c000004e0009e
:100fd00008003200e6c05000814f50004e003a0039
:100fe00004003700c1c6b300814f50004a003a00e8
:100ff000210037000800e00004003a005c0890007f
:101000008d0120000000e000060032001100090000
:101010000e84d8000fb99700e2c07800f1ef9f006e
:101020007d012000110009000e84d8000a0037005d
:10103000110009000e04d8008d06e9000e81b900e8
:10104000020454008fb8970061417c0081fd2f009d
:101050008f80400082f07e00000478000800e000ed
:10106000020032000d00e000f1ff3c00cfc4de00c2
:10107000614db90025003700e00f5400e08f5c009f
:1010800004003a005c0890008d0120000000e000a0
:10109000070032006171b9000800be00630107005b
:1010a0008fb99700e3417800f3ef9f007d012000a6
:1010b0006171b9000800be004c0107000b00370049
:1010c0006171b9000800be00390107008d06e90012
:1010d00000f1b900020454000fba9700e4427c000a
:1010e00084fd2f000f02420005f27e000004be00c6
:1010f000e00f5000e08f5800020032000d00e000c9
:10110000efff3c004fcdde008a057800089ebe0050
:101110000a96be0030003700e00f5400e08f5c00fc
:10112000e00f5d00e08f5d0004003a005c08900075
:101130008d0120000000e000090032006172b9005a
:10114000612bb9000800be000a01be00da010700e9
:101150000fba970064427800f4ef9f007d012000f1
:101160006172b900612bb9000800be000a01be001f
:10117000ca0107000d0037006172b900612bb90088
:101180000800be000a01be00cf0107008d06e9007d
:1011900000f2b900040454008fba970065427c0045
:1011a00085fd2f008f82420084f27e00009ebe00eb
:1011b0000296be003c04be002c05be00e00f5400a9
:1011c000e08f5c00e00f5d00e08f5d000200340006
:1011d0000d00e000e8ff3c00e80f570010003a0067
:1011e0000c1090000038a3000d003200f78f56005d
:1011f00006003e0085fd2f008f824200e5c07e0084
:1012000000c3b30080cf5000050032008d06e90016
:1012100002c3b30081fd2f008f80400082f07e006a
:1012200078811600120e98006c00900083fd2f004c
:101230008f8141008d804100dafc07001c0890007e
:10124000dc089000810f500006003d000080500037
:10125000000e98000c1090000040a10000169800ad
:101260000f0037000100e0000d003d008c109000e1
:10127000f4806000f08f500009003a007c09900073
:10128000fc009000810051000c0990008280500009
:10129000008050004240a90001003400000e980078
:1012a0004f0778004f06be004f05be004f04be003a
:1012b000cf01b100000006000400fa00889fbe00c4
:1012c0008a9fbe008c1f7800000478000106780019
:1012d000f80d900078009000808555000808900077
:1012e00080855500180890008085550028089000da
:1012f000808555003808900080855500480890008a
:10130000808555000002220090bf9f00000323004b
:10131000a0bf9f00081090000028a30015003a000d
:101320000b00e000130034000b0578008a047800fd
:10133000e20f55000100360029002000c80190008e
:1013400009017800ee80570058009000030001006a
:10135000500498000000e0008c0032006808900003
:1013600009004000600c9800090555004240a900a2
:10137000eeff3c00780190000200e0000c00340019
:10138000c80190008c007800580090000300010014
:10139000500498008080eb000000e0007c003200e8
:1013a000e80890007800900000804000600c9800f1
:1013b000880c90000900e000110034000905780055
:1013c000e28f5400010036002a002000c80190007e
:1013d0000a017800ec8057005800900003000100db
:1013e000500498000000e000680032006808900097
:1013f0000a004000600c98008a845400edff37001a
:10140000180990000200e0000c003400c8019000b0
:10141000e80090005800900003000100500498007c
:101420008080eb000000e00059003200e8089000e6
:101430001808900000804000600c9800a80c9000f4
:101440000900e0001100340009057800e28f540023
:10145000010036002a002000c80190000a0178002f
:10146000ec805700580090000300010050049800e1
:101470000000e00045003200680890000a004000cb
:10148000600c98008a845400edff37003809900002
:101490000200e0000e003400e80090001808900000
:1014a00080804000c80190005800900003000100b7
:1014b000500498008080eb000000e000340032000f
:1014c000e80890003808900000804000600c980008
:1014d000c80c90000900e0001100340009057800f4
:1014e000e28f5400010036002a002000c80190005d
:1014f0000a017800ec8057005800900003000100ba
:10150000500498000000e0002000320068089000bd
:101510000a004000600c98008a845400edff3700f8
:10152000081090008000eb000028a3001800320093
:101530000b00e000160034008b04780009057800e9
:10154000e28f5400010036002a002000c8019000fc
:101550000a017800ee805700580090000300010057
:10156000500498000000e000080032006808900075
:101570000a004000600c98008a8454004240a90090
:10158000eeff3c008000eb00010037008080eb00a4
:10159000010078004f0678004f05be004f04be00e2
:1015a0000080fa0000000600010878000000060034
:1015b000839f68000100e00002003d006000100011
:1015c000e08018000300e00002003d00600111000f
:1015d000e0811900050007004f00e00002003b0019
:1015e00060001000e0801800000006006022b800d3
:1015f000060220000000d0008180d2000482d200c8
:101600008582d2000000a0000202520083825a00ac
:10161000030031000202420083824a000000a10060
:101620000603e900f3ff3a0000000600efff0700a1
:101630000400be0000000600889fbe008a9fbe0016
:1016400030044200b0844a0030054b0090854b00c6
:101650006000b1000898be000a90be000440e1009e
:1016600005c8e10006d0e10007d8e1000200310022
:10167000680040001008e8004f05be004f04be009f
:1016800000000600889fbe008a9fbe003004be0096
:101690002005be000418540005985c0006185d0083
:1016a00007985d00110020000440e10005c8e1003a
:1016b00006d0e10007d8e100010039008000eb000e
:1016c000108810004f05be004f04be000000060049
:1016d0001200fa00889fbe008a9fbe008c9fbe0049
:1016e000e0b79f00f1b79f0082bf9f0093bf9f00ac
:1016f0000605be000404be000000eb00d0b79f004a
:10170000c0b79f00b0b79f00a0b79f0090b79f00e1
:101710000006eb005fb19700cfb097008201410057
:101720003fb097000200e00004003d0037000700d2
:101730007e805700c0ff070003003700330007001a
:101740007e805700cfff0700dfb697000d00e00056
:101750000c0035006fb29700ffb297000fbb9700e7
:101760009fbb970010002000010020006011b8000e
:10177000000272008182720002037300838373008f
:101780001b0007000c06e80001042000810f560032
:10179000e0ff3a000d00e00004003d000802be003a
:1017a0000a03be007e805700a3ff07005fa89700d2
:1017b0000000e00005003a001fb29700afb29700aa
:1017c0003fb39700cfb39700090007006fb09700b1
:1017d000ffb097000fb997009fb997004f06be0062
:1017e0004f05be004f04be000080fa000000060056
:1017f0000100070000000600a4b79f00b5b79f00d6
:10180000c6b79f00d7b79f00000006004f09de0053
:1018100082817100b3b79f004f01de0081804000dc
:1018200082807000a1b79f008fb097004f09de0043
:10183000000040000200700090b79f007fa8970052
:101840004f01de00818040008280700081b79f00e0
:101850000d0007004f3ade00000040000400700059
:10186000f0af9f00080007000402420085824a0092
:1018700006034b0087834b00dfff07000802be0012
:101880000a03be00000006002fb29700bfb2970007
:101890004fb39700dfb3970000000600881f780061
:1018a00018002000881f780089ff07008f87e90053
:1018b0004f04780000000600801feb0084ff070043
:1018c0008f87e90000000600889fbe008a9fbe0047
:1018d000e00f5000e08f5800e00f5900e08f5900f2
:1018e0000c003d006044b8006055b8000000540092
:1018f00081805c0002015d0083815d001800200092
:101900001500070008003d00180007000004eb0068
:10191000050037000004eb000f00070002003d0047
:101920001200070018002000dcff07000800e0009c
:10193000060032006022b8006033b8000000520098
:1019400081805a0002015b0083815b004f05be006d
:101950004f04be0000000600e00f5200e08f5a0066
:10196000e00f5b00e08f5b00000006006044b80001
:101970006055b8000402540085825c0006035d00d7
:1019800087835d0000000600889fbe008a9fbe001e
:101990008c1f7800e00f5000e08f5800e00f5900d6
:1019a000e08f59000d003d006044b8006055b8005c
:1019b0000000540081805c0002015d0083815d00b5
:1019c0001c0020000820e10009a8e1000ab0e100a5
:1019d0000bb8e1000d003d00080037000006eb00e9
:1019e000e00f5200e08f5a00e00f5b00e08f5b00d9
:1019f00006003d006044b8006055b8000402540081
:101a000085825c0006035d0087835d00aaff0700f6
:101a10000c00e000060032006022b8006033b8001d
:101a20000000520081805a0002015b0083815b004c
:101a30004f0678004f05be004f04be0000000600b0
:020000040000fa
:101a4000534e00003d250000730000005246000088
:101a5000494400002041000043430000455300007a
:101a600053200000434f00004e540000524f00002e
:101a70004c0000004f500000454e0000494e000051
:101a8000472000004c4f0000434b00000041000085
:101a900044430000203d00002025000030340000b9
:101aa000582000002020000020200000200000001e
:101ab00054410000473a0000253200005800000061
:101ac00025320000583a000000320000303100009a
:101ad00032360000343600003239000000000000c9
:020000040000fa
:101ae0000400fa0020479800cda2a9002e409000e3
:101af0000080fb000000400000407800e047b2009a
:101b00000074a000700407000040eb006e040700a2
:101b1000004f7800cda2a8001e4078000080fa0097
:101b2000000006000200fa00004f780011479800fc
:101b3000cda2a9004022a8004002a8001e80fb0000
:101b40000000400000407800e047b2005e0407005b
:101b50001e4090005c040700cda2a8000080fa009f
:101b6000000006000400fa00204798003147980062
:101b70002e409000daff0700004f78003e409000b2
:101b80001e407000804078002e409000e5ff070066
:101b90000080fa00000006000400fa0020479800c8
:101ba000314798002e409000cdff0700004f78008d
:101bb0003e40900080c0ea001e40780000c06000f7
:101bc000804078002e409000d6ff07000080fa0089
:101bd000000006000000fa00f1c0b30010c0b3001e
:101be000d0ff07000080fa00000006000200fa00a3
:101bf00040c1b300baff0700004f78001e80fb0011
:101c0000630060000000e00003003a0031c0b30050
:101c100040c1b300d3ff07000080fa0000000600b7
:101c20000000fa0031c0b30040c1b300daff070082
:101c30000080fa00000006000000fa00e5ff07003f
:101c4000d1c8b300a0c2b300b6ff070000d0270080
:101c5000010020000c050700e1c3b300b0c2b300cf
:101c6000b0ff070000d02700010020000605070094
:101c7000e1c1b300d0c2b300aaff070000d0270023
:101c800001002000000507008040eb00c0c2b30047
:101c9000a4ff070000d0270001002000fa0407007d
:101ca00001c4b30050c1b3009eff070000d027005d
:101cb00001002000f4040700d1c3b30010c1b30039
:101cc00098ff070000d0270001002000ee04070065
:101cd00000d0270001002000eb040700c3ff07002d
:101ce0000080fa00000006000200fa0070c3b30092
:101cf0007bff0700004f78001e4078000080fa004c
:101d0000000006001400fa00881f7800204f980099
:101d10006107980072079800030f9800140f98004d
:101d200020002000000f78000040eb0020479800c2
:101d30000040eb00304798002e4890000080fb00e8
:101d4000ec0f500007003200ee0f50000a003a007e
:101d500020c1b3002047980000c1b300304798006d
:101d60000600370070c7b3002047980000c3b300d7
:101d70003047980001003700000000002e4090001e
:101d80000074a0008040780020c0b30065ff070009
:101d900001c8b30040c0b3007fff070001c8b30013
:101da000a0c0b3006fff07008040eb0010c0b3007d
:101db0005cff07000000eb00300798000a003700c6
:101dc0003e009000ee00900000804000104078003f
:101dd0008040780090c0b30052ff07003e009000a2
:101de0000000e80030079800be0090007e009000e0
:101df000808f5000f2ff3500ae48900010c0b30055
:101e000048ff07002e489000ec4f500003003a00b6
:101e100001c8b300d0c0b30052ff070090012000fa
:101e20003007980000e82300010020009604070016
:101e300040c0b3002aff0700404798003e009000d2
:101e40000000e900300798003e0090000000e0002c
:101e50000a0032004e4090000080fb0061006000ec
:101e60000000e00005003a00ce4090003e409000a7
:101e700000c060000004e000eaff320001c8b300c7
:101e8000d0c0b30044ff07003e0090000000e00017
:101e90004c00320060c0b30011ff07000080fb005f
:101ea0007d0060000000e00044003a000000eb000c
:101eb000000f7800ce4090002e40900000c06000df
:101ec0000080fb0061006000004078000004e0003a
:101ed0000200320010002000000f78002e48900011
:101ee000ec4f500037003a00a0c0b300fcfe0700e2
:101ef00040479800c0c0b300f9fe0700674060008b
:101f0000004f98000e4890000004e0000a003200e4
:101f10004e4090000080fb000000e900c300dd009f
:101f20000e4890000080fb00808040001e0890005a
:101f300001087800050037004e4090000080fb004b
:101f4000c300dd001e089000010878004e4090009c
:101f50000004e00002003a0010c0b30040479800bf
:101f60004e409000f04f50000200360000c1b30018
:101f7000404798000000eb00300798000900370048
:101f80003e0090008e0890000084400090c0b30096
:101f9000d3fe0700004c78003e0090000000e800ef
:101fa000300798004e4090008080fb003e0090007b
:101fb000808f5000f2ff3c0002003700200020001c
:101fc000000f78001e0078004f0478000080fa00af
:101fd000000006000800fa0040479800310798000a
:101fe00071c0b300d0c0b300cefe07003e00900029
:101ff000ce409000014878000e80e8000002780092
:10200000be01900012002000be009000c0c0b300ce
:102010003cff0700000f78001e0078000000e00081
:1020200003003a001e009000f00f50000200320042
:1020300020002000000f78001e0078000080fa00c9
:10204000000006000a00fa00400798000040eb007c
:10205000404798008040eb00d0c0b300b1fe0700bd
:102060004e00900031c9b300014878004e00900046
:102070000000e80001c2b300014878006600470094
:1020800000027800ce01900022002000ce009000d7
:10209000c0c0b3001bff0700000f78003e00900097
:1020a0000000e00001003d00670040004380de00ca
:1020b000300798001e0078000000e0001b003a0086
:1020c0000000eb00100798000a0037001e00900087
:1020d000ce0090000080400010407800ce4090007c
:1020e00000c06800404798001e0090000000e80013
:1020f000100798003e0090008000e9001e0090004c
:10210000808f5000f1ff3c001e009000ce00900038
:1021100000804000904078004e40900080cf5000fa
:102120000200320020002000000f78001e0078001e
:102130000080fa00000006000a00fa00881f7800fc
:1021400020079800310798004207980041c0b3006b
:1021500050c0b30090fe070001c8b300a0c0b30098
:1021600080fe07000000eb00000f78000800370039
:102170001e007800ae009000008040001040780003
:102180008040780090c0b30066fe07001e0fe80094
:102190003e0090009e007800808f5000f4ff3500d4
:1021a00031c0b30010c0b3005efe0700f00f200086
:1021b000000f780050c0b30049fe07002047980088
:1021c0001e0fe9001e0078000000e000050032004c
:1021d0002e4090000080fb00640060000000e000e2
:1021e000f4ff320020c2b3003dfe0700ce00900095
:1021f000804878004e0090000004e80010c2b30050
:1022000037fe0700004c78004f0478000080fa0089
:10221000000006003000fa00e40047000700090053
:102220008018eb008058eb007501470051d628005c
:1022300009000900315978007f01470010000900aa
:102240000059eb000000eb00000f78000000eb00ed
:1022500010079800c822ef0000032800200888001b
:102260000080eb00601988000080eb0000168800f9
:1022700000002900401688000080eb0060168800ee
:1022800010002000201688002c43a900c042a9009d
:102290002c63a900c062a9002c83a900c082a900f8
:1022a000c9c2a900cdc2a90000f029004102200046
:1022b00075030700c482a800c442a800c462a80035
:1022c000da020700b2010700c482a8009a010700e1
:1022d00064004700f5004700811f780001d2280004
:1022e000811f7800c3f80700e487570064004700a7
:1022f00075010700960107006400470042012000b5
:1023000061d22800a7f80700640047006e010700ab
:102310006b03070000502300c10020005a03070090
:10232000cdc2a80044fe07008901070064004700f1
:102330004201200061d228009af80700640047009b
:1023400061010700a180200060c2b30021ff0700e7
:102350000040780000e8b70000402d000103200095
:102360004903070000c8bf000004e00011003a0064
:102370004200070032000700c442a90000502300b9
:10238000c1002000400307007101070064004700fe
:10239000d2002000a1d3280082f807006400470083
:1023a0004901070000402200410f200036030700ca
:1023b000c442a800c482a90000e0230091042000c8
:1023c0003103070090002000d7020700a502070094
:1023d00000e02300910420002b030700a502070062
:1023e000c102070010079800590107006400470068
:1023f0009e009000811f780071d42800811f780012
:102400007cf80700e4875700640047002e010700ae
:102410009e009000f0032000808f500002003e00dc
:10242000c462a90001003700c462a800c482a800e9
:1024300000202100a107200013030700c1ff37007f
:102440000000fa0030408000e10f500005003a0023
:102450000628ef0000502300c10020000a030700f7
:10246000040037000628ef0000502300c1002000c0
:10247000050307000080fa00000006000200fa00d1
:10248000a0802000effe07000040780001e8b700c0
:102490000000eb00000f78000e003700a080200045
:1024a0001e004000104078000080fb00801f780074
:1024b00080d52800801f7800e08220004df80700ba
:1024c000e487570000d0270001002000ee0207003b
:1024d0001e0fe8001e007800e20f5000efff3400ee
:1024e0000000eb00000f78000b003700208920006f
:1024f0001e00400090407800a08020001e00400098
:102500001040780080cf5000020032000628ef0013
:10251000040037001e0fe8001e007800e30f500093
:10252000f2ff3400d08020009040780050892000d5
:102530001040780080cf500002003a0010002000c8
:1025400030408800020107000000eb00000f780017
:102550000d003700a08020001e00400010407800d1
:102560000080fb00801f780000d62800801f7800c4
:10257000a08120001ff80700e4875700a0812000f9
:10258000d10007001e0fe8001e007800e30f500086
:10259000f0ff340000d0270001002000ba0207003d
:1025a0000080fa00000006000000fa000080fa0037
:1025b000000006000200fa000000eb00000f7800a7
:1025c000010037001e0fe800707520009e007800a3
:1025d000808f5000fbff34000080fa0000000600ee
:1025e0000200fa000000eb00000f78000100370045
:1025f0001e0fe800707520009e007800808f50004c
:10260000fbff34000080fa00000006000200fa0020
:10261000000f7800cc22ef00000000009e00780040
:102620006f8f60001e50a000611680001e007800b1
:1026300001007000000f78001e007800601688000e
:10264000dcff0700cca2a9000080fa000000060011
:102650000400fa0010079800cc22ef0000000000f0
:102660009e009000000f2000008f60001e00780088
:102670004480de00000f78001e50a000611680002c
:102680001e00780001007000000f78001e00780026
:1026900060168800d2ff0700cca2a900cc22ef0070
:1026a000000000001e0090006f0f60001e50a00090
:1026b000611680001e00780001007000000f780095
:1026c0001e00780060168800c5ff0700cca2a90094
:1026d0000080fa00000006000200fa00000f7800f7
:1026e0001e0078004380de000040780061406000fa
:1026f0000080fb00610060004300dd006216800086
:1027000071ff2f00810061000100700060168800d9
:102710001e0078004280de000040780061406000ca
:102720000080fb00610060004200dd006216800056
:10273000b1ff2f0081006100010070006016880069
:102740001e0078000080d1000040780061406000e9
:102750000080fb0061006000000040006216800005
:10276000d1ff2f0081006100010070006016880019
:102770001e00780000407800614060006140600009
:10278000614060000080fb00610060006216800014
:10279000e1ff2f00810061000100700060168800d9
:1027a000cca2a8008eff0700cca2a9000080fa00ee
:1027b000000006000800fa00200798006147980012
:1027c00000000000ae009000000f2000008f6000ad
:1027d0001e0078004480de00000f78006e409000fc
:1027e000614060000080fb00610060004400dd008b
:1027f00062168000f1fe2f00810061000100700070
:10280000601688001e007800b3ff070074ff070001
:10281000ee40900021479800601680004400de00e2
:1028200061406000004178002e4090008081fb00f4
:102830001000200001002000030278000402e900db
:10284000030033000000400081804800fbff370098
:102850000040780000406900614060000080fb009b
:10286000610060004400dd0062168000f1fe2f0070
:102870008100610001007000601688000000000007
:102880002e0090006f0f60006e409000614060006d
:102890000080fb00610060004400dd0062168000e3
:1028a000f1fe2f00810061000100700060168800b9
:1028b0001e00780088ff070049ff0700cc82a900ae
:1028c0000080fa00000006000800fa0030079800b7
:1028d0000000eb00100798000000eb00000f7800ec
:1028e0000000eb00200798003e00900034f707003e
:1028f000100798000a0037001e007800be00900004
:1029000000804000104078000000fb002007980085
:102910001e0fe80011c0b3002e009000a5ff0700b5
:102920001e0090009e007800808f5000f2ff35005e
:102930000080fa00000006000000fa008040eb0072
:10294000000820009bff07000080fa00000006003e
:102950000000fa008040eb00000c200095ff07000b
:102960000080fa00000006000000fa0010002000bd
:1029700037ff07000080fa00000006000000fa00a0
:10298000e000200032ff07000080fa00000006008f
:102990000000fa0007ff0700cc82a90030002000e9
:1029a0004dff0700300020004bff070030002000e3
:1029b00049ff07002000200047ff070008ff07002d
:1029c0002000200044ff070005ff0700c000200092
:1029d00041ff070002ff07000000eb003eff070079
:1029e000fffe0700100020003bff0700fcfe070071
:1029f0000000eb0038ff0700f9fe0700c0002000d0
:102a000035ff0700f6fe07000000eb0032ff07006d
:102a1000f3fe0700600020002fff0700f0fe070014
:102a20000080fa00000006000000fa000080eb00c1
:102a300000168800c822ef005002200020108800f5
:102a400000b82200301088001622ef008620a9006e
:102a500007e2a8000080fa00000006000000fa006b
:102a60000080eb000016880000002a00301088006b
:102a700007e2a90050022000201088000722a900c8
:102a80008620a90007e2a8000080fa0000000600e6
:102a90000000fa00000000003004800062006000c6
:102aa0000000e000fcff32008620a9000080fa0050
:102ab000000006000000fa000602a800f4ff07006c
:102ac0000080fa00000006000000fa000622a800bc
:102ad000efff07008620a9000080fa000000060032
:102ae0000000fa000642a800e9ff07008620a900be
:102af0000080fa00000006000000fa0006a2a9000b
:102b00000682a800e2ff07008620a9000080fa00e4
:102b1000000006000000fa0006a2a8000682a80035
:102b2000dbff07008620a9000080fa0000000600f5
:102b30000200fa00004f78001e80fb001010880091
:102b4000d3ff0700000000004110800000002400b7
:102b5000008060000000e000fbff3a0040108000b1
:102b60004f00de00004078000080fb000080fa008b
:102b7000000006000200fa000662a800c4ff070079
:102b800000108000004f78001e4078000080fa009e
:102b9000000006000400fa00000f780021479800aa
:102ba000c4ff070001003700c7ff070000cab300d9
:102bb000dfff07000000e000fbff3a001e00780086
:102bc0004800de0000407800d9ff07001e007800b2
:102bd00000407800d6ff07002e409000d4ff070089
:102be000bfff07000080fa00000006000400fa00a2
:102bf000100798000040eb00004f7800adff070081
:102c000001003700b0ff070000cab300c8ff07008b
:102c10000000e000fbff3a001e0090004800de00cc
:102c200000407800c2ff07001e00900000407800be
:102c3000bfff0700a4ff070010cab300bcff0700d6
:102c4000ccff0700004f7800b2ff0700a4ff070089
:102c50001e80fb000080fa00000006000000fa0061
:102c600042a2a8004822ef00c8e2a900c922a80099
:102c7000c902a900c9a2a900cda2a800cda2a8009e
:102c80004022a8004002a8004302a80042c2a900b6
:102c90004322a9004382a9004362a90042e2a9009d
:102ca0004342a90011128000c0ff2f000080600085
:102cb0000000a000101288004402a90041e2a80010
:102cc0000080fa00000006000200fa00004f7800c1
:102cd0001e80fb00401288000000000000128000ef
:102ce000610060000000e000fcff32004012800044
:102cf000004078000080fa00000006000800fa009a
:102d0000881f780010079800414798003207980004
:102d10000040eb00004f78004e4090000004e000bf
:102d20002b0032001e0090000000e000190032006d
:102d3000130037003e0090000000e00006003a005b
:102d40001e80fb009e009000008040001040780034
:102d5000ddff0700090037001e80fb00be00900069
:102d6000008440001e80fb009e0090000080400018
:102d700010407800d4ff0700004c78001e4fe80098
:102d80004e4090009e40780080cf5000e9ff39000f
:102d90000f0037003e0090000000e0000c00320001
:102da000070037001e80fb00be009000008440003a
:102db0000040eb00c4ff0700004c78001e4fe80005
:102dc0004e4090009e40780080cf5000f5ff3900c3
:102dd0001e4078004f0478000080fa0000000600d2
:102de0000000fa00001280000000d1006140600085
:102df0000080fb0000f0a7000000ea000000ea00ed
:102e00004f00de00004078000080fa00000006005d
:102e10000000fa000040eb000080fa00000006000d
:102e20000000fa000080fa00000006000000fa002e
:102e300000002800001988002223ef002423ef005f
:102e40002823ef003023ef002d23a9001019800064
:102e50004200de006f40600008e8b7000080fa0022
:102e6000000006000000fa002023a8000080fa00fd
:102e7000000006000000fa002023a9000080fa00ec
:102e8000000006000600fa0020079800003020002d
:102e9000100798000000eb00000f78000b003700cf
:102ea0001e00780000004000ae009000008040004e
:102eb0009e00900091007800010878001e009000ac
:102ec0000080e800100798001e0fe80008c8bf0047
:102ed0000080fb009e0f5000f1ff3d001e007800b7
:102ee0000080fa00000006000000fa0000188000d0
:102ef0000080fa00000006000000fa0000198000bf
:102f000000407800614060000080fb0000f0a700f6
:102f10000000ea000000ea004f00de0000407800f8
:102f20000080fa00000006000200fa00000f78009e
:102f30009e007800411988000080fa000000060019
:102f40000000fa000080fa00000006000000fa000d
:102f50002104800000002200008060000000e000ea
:102f600002003200f6ff070085a0a9000080fa00e9
:042f70000000060057
:020000040000fa
:102f74009208000004000000020000009e80b100de
:102f8400590000000a0800004c0000000000000086
:102f9400000800000800000000000000080800000d
:102fa4000200000000000000780800001a00000081
:102fb40002000000686a6c00747a4c000000010092
:102fc40000020000040008000010000000002000bf
:102fd4002b2d2300300000005608000022000000c2
:102fe4000200000030313200333435003637380007
:102ff4003941420043444500460030003132330039
:103004003435360037383900616263006465660020
:083014000000000000000000b4
:020000040000fa
:10301c000000fa004136800000fe2f0000806000a6
:10302c007000b3004036880031368000f00f2e005f
:10303c000080600000b0a000303688004135800070
:10304c0000fe2f00008060009000b3004035880027
:10305c0061368000f00f2e00808060000090200010
:10306c0001007000603688000080fa000000060045
:0c307c000000fa000080fa0000000600ce
:020000040000fa
:10308800f03fb1000180b10006003500ee030900f1
:1030980000000000403fb1000180b100fbff3d008f
:1030a8001000b000203fb000020035000080090089
:0830b80000000000000006000a
:020000040000fa
:1030c0000000fa00d5ff0700e4fe07000080fa00c8
:1030d000000006000000fa000080fa000000060070
:0c30e0000000fa000080fa00000006006a
:020000040000fa
:020000040001f9
:0457f400fffc0000b6
:020000040000fa
:020000040001f9
:0457f8008b19000009
:020000040000fa
:020000040001f9
:0457fc007f3e0000ec
:00000001FF
